{
  "contractName": "MauElection",
  "abi": [
    {
      "inputs": [],
      "stateMutability": "nonpayable",
      "type": "constructor"
    },
    {
      "anonymous": false,
      "inputs": [
        {
          "indexed": true,
          "internalType": "address",
          "name": "previousOwner",
          "type": "address"
        },
        {
          "indexed": true,
          "internalType": "address",
          "name": "newOwner",
          "type": "address"
        }
      ],
      "name": "OwnershipTransferred",
      "type": "event"
    },
    {
      "inputs": [
        {
          "internalType": "uint256",
          "name": "",
          "type": "uint256"
        }
      ],
      "name": "candidates",
      "outputs": [
        {
          "internalType": "uint256",
          "name": "id",
          "type": "uint256"
        },
        {
          "internalType": "string",
          "name": "name",
          "type": "string"
        },
        {
          "internalType": "uint256",
          "name": "voteCount",
          "type": "uint256"
        },
        {
          "internalType": "string",
          "name": "party",
          "type": "string"
        }
      ],
      "stateMutability": "view",
      "type": "function",
      "constant": true
    },
    {
      "inputs": [],
      "name": "candidatesCount",
      "outputs": [
        {
          "internalType": "uint256",
          "name": "",
          "type": "uint256"
        }
      ],
      "stateMutability": "view",
      "type": "function",
      "constant": true
    },
    {
      "inputs": [],
      "name": "commissioner",
      "outputs": [
        {
          "internalType": "address",
          "name": "",
          "type": "address"
        }
      ],
      "stateMutability": "view",
      "type": "function",
      "constant": true
    },
    {
      "inputs": [],
      "name": "electionOff",
      "outputs": [
        {
          "internalType": "bool",
          "name": "",
          "type": "bool"
        }
      ],
      "stateMutability": "view",
      "type": "function",
      "constant": true
    },
    {
      "inputs": [],
      "name": "owner",
      "outputs": [
        {
          "internalType": "address",
          "name": "",
          "type": "address"
        }
      ],
      "stateMutability": "view",
      "type": "function",
      "constant": true
    },
    {
      "inputs": [],
      "name": "renounceOwnership",
      "outputs": [],
      "stateMutability": "nonpayable",
      "type": "function"
    },
    {
      "inputs": [
        {
          "internalType": "address",
          "name": "newOwner",
          "type": "address"
        }
      ],
      "name": "transferOwnership",
      "outputs": [],
      "stateMutability": "nonpayable",
      "type": "function"
    },
    {
      "inputs": [
        {
          "internalType": "address",
          "name": "",
          "type": "address"
        }
      ],
      "name": "voters",
      "outputs": [
        {
          "internalType": "bool",
          "name": "",
          "type": "bool"
        }
      ],
      "stateMutability": "view",
      "type": "function",
      "constant": true
    },
    {
      "inputs": [
        {
          "internalType": "uint256",
          "name": "_candidateId",
          "type": "uint256"
        }
      ],
      "name": "vote",
      "outputs": [],
      "stateMutability": "nonpayable",
      "type": "function"
    },
    {
      "inputs": [],
      "name": "closeElection",
      "outputs": [],
      "stateMutability": "nonpayable",
      "type": "function"
    }
  ],
  "bytecode": "0x60806040523480156200001157600080fd5b506200003262000026620001ed60201b60201c565b620001f560201b60201c565b620000ae6040518060400160405280600a81526020017f4a6f686e20536d697468000000000000000000000000000000000000000000008152506040518060400160405280600381526020017f5054520000000000000000000000000000000000000000000000000000000000815250620002b960201b60201c565b6200012a6040518060400160405280600d81526020017f526f6e616c6420526561766572000000000000000000000000000000000000008152506040518060400160405280600381526020017f4d534d0000000000000000000000000000000000000000000000000000000000815250620002b960201b60201c565b620001a66040518060400160405280600b81526020017f4a616e652052656167616e0000000000000000000000000000000000000000008152506040518060400160405280600381526020017f4d4d4d0000000000000000000000000000000000000000000000000000000000815250620002b960201b60201c565b33600260006101000a81548173ffffffffffffffffffffffffffffffffffffffff021916908373ffffffffffffffffffffffffffffffffffffffff16021790555062000556565b600033905090565b60008060009054906101000a900473ffffffffffffffffffffffffffffffffffffffff169050816000806101000a81548173ffffffffffffffffffffffffffffffffffffffff021916908373ffffffffffffffffffffffffffffffffffffffff1602179055508173ffffffffffffffffffffffffffffffffffffffff168173ffffffffffffffffffffffffffffffffffffffff167f8be0079c531659141344cd1fd0a4f28419497f9722a3daafe3b4186f6b6457e060405160405180910390a35050565b60016000815480929190620002ce9062000468565b9190505550604051806080016040528060018054620002ee9190620004b6565b815260200183815260200160008152602001828152506003600060018054620003189190620004b6565b81526020019081526020016000206000820151816000015560208201518160010190805190602001906200034e9291906200037f565b50604082015181600201556060820151816003019080519060200190620003779291906200037f565b509050505050565b8280546200038d9062000520565b90600052602060002090601f016020900481019282620003b15760008555620003fd565b82601f10620003cc57805160ff1916838001178555620003fd565b82800160010185558215620003fd579182015b82811115620003fc578251825591602001919060010190620003df565b5b5090506200040c919062000410565b5090565b5b808211156200042b57600081600090555060010162000411565b5090565b7f4e487b7100000000000000000000000000000000000000000000000000000000600052601160045260246000fd5b6000819050919050565b600062000475826200045e565b91507fffffffffffffffffffffffffffffffffffffffffffffffffffffffffffffffff821415620004ab57620004aa6200042f565b5b600182019050919050565b6000620004c3826200045e565b9150620004d0836200045e565b925082821015620004e657620004e56200042f565b5b828203905092915050565b7f4e487b7100000000000000000000000000000000000000000000000000000000600052602260045260246000fd5b600060028204905060018216806200053957607f821691505b6020821081141562000550576200054f620004f1565b5b50919050565b610c4680620005666000396000f3fe608060405234801561001057600080fd5b506004361061009e5760003560e01c80638da5cb5b116100665780638da5cb5b146101245780638e0f6e6314610142578063a3ec138d14610160578063f189449814610190578063f2fde38b146101ae5761009e565b80630121b93f146100a35780632d35a8a2146100bf5780633477ee2e146100dd5780636c6c32d014610110578063715018a61461011a575b600080fd5b6100bd60048036038101906100b891906107d7565b6101ca565b005b6100c76102ef565b6040516100d49190610813565b60405180910390f35b6100f760048036038101906100f291906107d7565b6102f5565b60405161010794939291906108c7565b60405180910390f35b610118610435565b005b6101226104ce565b005b61012c610556565b604051610139919061095b565b60405180910390f35b61014a61057f565b6040516101579190610991565b60405180910390f35b61017a600480360381019061017591906109d8565b610592565b6040516101879190610991565b60405180910390f35b6101986105b2565b6040516101a5919061095b565b60405180910390f35b6101c860048036038101906101c391906109d8565b6105d8565b005b60001515600260149054906101000a900460ff161515146101ea57600080fd5b600460003373ffffffffffffffffffffffffffffffffffffffff1673ffffffffffffffffffffffffffffffffffffffff16815260200190815260200160002060009054906101000a900460ff161561024157600080fd5b6000811015801561025f57506001805461025b9190610a34565b8111155b61026857600080fd5b60036000828152602001908152602001600020600201600081548092919061028f90610a68565b91905055506001600460003373ffffffffffffffffffffffffffffffffffffffff1673ffffffffffffffffffffffffffffffffffffffff16815260200190815260200160002060006101000a81548160ff02191690831515021790555050565b60015481565b600360205280600052604060002060009150905080600001549080600101805461031e90610ae0565b80601f016020809104026020016040519081016040528092919081815260200182805461034a90610ae0565b80156103975780601f1061036c57610100808354040283529160200191610397565b820191906000526020600020905b81548152906001019060200180831161037a57829003601f168201915b5050505050908060020154908060030180546103b290610ae0565b80601f01602080910402602001604051908101604052809291908181526020018280546103de90610ae0565b801561042b5780601f106104005761010080835404028352916020019161042b565b820191906000526020600020905b81548152906001019060200180831161040e57829003601f168201915b5050505050905084565b61043d6106d0565b73ffffffffffffffffffffffffffffffffffffffff1661045b610556565b73ffffffffffffffffffffffffffffffffffffffff16146104b1576040517f08c379a00000000000000000000000000000000000000000000000000000000081526004016104a890610b5e565b60405180910390fd5b6001600260146101000a81548160ff021916908315150217905550565b6104d66106d0565b73ffffffffffffffffffffffffffffffffffffffff166104f4610556565b73ffffffffffffffffffffffffffffffffffffffff161461054a576040517f08c379a000000000000000000000000000000000000000000000000000000000815260040161054190610b5e565b60405180910390fd5b61055460006106d8565b565b60008060009054906101000a900473ffffffffffffffffffffffffffffffffffffffff16905090565b600260149054906101000a900460ff1681565b60046020528060005260406000206000915054906101000a900460ff1681565b600260009054906101000a900473ffffffffffffffffffffffffffffffffffffffff1681565b6105e06106d0565b73ffffffffffffffffffffffffffffffffffffffff166105fe610556565b73ffffffffffffffffffffffffffffffffffffffff1614610654576040517f08c379a000000000000000000000000000000000000000000000000000000000815260040161064b90610b5e565b60405180910390fd5b600073ffffffffffffffffffffffffffffffffffffffff168173ffffffffffffffffffffffffffffffffffffffff1614156106c4576040517f08c379a00000000000000000000000000000000000000000000000000000000081526004016106bb90610bf0565b60405180910390fd5b6106cd816106d8565b50565b600033905090565b60008060009054906101000a900473ffffffffffffffffffffffffffffffffffffffff169050816000806101000a81548173ffffffffffffffffffffffffffffffffffffffff021916908373ffffffffffffffffffffffffffffffffffffffff1602179055508173ffffffffffffffffffffffffffffffffffffffff168173ffffffffffffffffffffffffffffffffffffffff167f8be0079c531659141344cd1fd0a4f28419497f9722a3daafe3b4186f6b6457e060405160405180910390a35050565b600080fd5b6000819050919050565b6107b4816107a1565b81146107bf57600080fd5b50565b6000813590506107d1816107ab565b92915050565b6000602082840312156107ed576107ec61079c565b5b60006107fb848285016107c2565b91505092915050565b61080d816107a1565b82525050565b60006020820190506108286000830184610804565b92915050565b600081519050919050565b600082825260208201905092915050565b60005b8381101561086857808201518184015260208101905061084d565b83811115610877576000848401525b50505050565b6000601f19601f8301169050919050565b60006108998261082e565b6108a38185610839565b93506108b381856020860161084a565b6108bc8161087d565b840191505092915050565b60006080820190506108dc6000830187610804565b81810360208301526108ee818661088e565b90506108fd6040830185610804565b818103606083015261090f818461088e565b905095945050505050565b600073ffffffffffffffffffffffffffffffffffffffff82169050919050565b60006109458261091a565b9050919050565b6109558161093a565b82525050565b6000602082019050610970600083018461094c565b92915050565b60008115159050919050565b61098b81610976565b82525050565b60006020820190506109a66000830184610982565b92915050565b6109b58161093a565b81146109c057600080fd5b50565b6000813590506109d2816109ac565b92915050565b6000602082840312156109ee576109ed61079c565b5b60006109fc848285016109c3565b91505092915050565b7f4e487b7100000000000000000000000000000000000000000000000000000000600052601160045260246000fd5b6000610a3f826107a1565b9150610a4a836107a1565b925082821015610a5d57610a5c610a05565b5b828203905092915050565b6000610a73826107a1565b91507fffffffffffffffffffffffffffffffffffffffffffffffffffffffffffffffff821415610aa657610aa5610a05565b5b600182019050919050565b7f4e487b7100000000000000000000000000000000000000000000000000000000600052602260045260246000fd5b60006002820490506001821680610af857607f821691505b60208210811415610b0c57610b0b610ab1565b5b50919050565b7f4f776e61626c653a2063616c6c6572206973206e6f7420746865206f776e6572600082015250565b6000610b48602083610839565b9150610b5382610b12565b602082019050919050565b60006020820190508181036000830152610b7781610b3b565b9050919050565b7f4f776e61626c653a206e6577206f776e657220697320746865207a65726f206160008201527f6464726573730000000000000000000000000000000000000000000000000000602082015250565b6000610bda602683610839565b9150610be582610b7e565b604082019050919050565b60006020820190508181036000830152610c0981610bcd565b905091905056fea2646970667358221220b3a8d9e8f2c58a3888ced5dd611b4467ce723c98770d09e9601bb7da6547ff0a64736f6c634300080b0033",
  "immutableReferences": {},
  "source": "// SPDX-License-Identifier: MIT\npragma solidity >=0.5.0 <0.9.0;\nimport \"@openzeppelin/contracts/access/Ownable.sol\";\n\n///@notice MauElection stands for Mauritius Election. With more experience, the current project\n///@notice can be expanded to ressemble more the Mauritian Election system. \n\ncontract MauElection is Ownable {\n\n  ///@dev Modelling of a candidate\n  struct Candidate {\n    uint id; ///@dev the ID of the candidate, starting with ID 0.\n    string name; ///@dev the name of the candidate\n    uint voteCount; ///@dev the number of votes the candidate receives\n    string party; ///@dev the party to which the candidate belongs\n\n    ///@dev In the future, the following struct elements can be added: constituency;\n    ///@dev There are 21 constituencies in Mauritius. Results can be given for each constituency.\n  }\n\n  //Store the number of candidates\n  uint public candidatesCount;\n\n  address public commissioner;\n\n  ///@dev This boolean operator is used to keep the state of the election (on or off)\n  bool public electionOff;\n\n  //Store the candidates with key uint and value struct Candidate\n  mapping(uint => Candidate) public candidates;\n\n  //default mapping is false. After a voter has voted, its mapping is updated to true.\n  mapping(address => bool) public voters;\n\n  //Registering candidates is done at the time of initializing the contract\n  constructor () public {\n        registerCandidate(\"John Smith\", \"PTR\");\n        registerCandidate(\"Ronald Reaver\", \"MSM\");\n        registerCandidate(\"Jane Reagan\", \"MMM\");   \n        commissioner = msg.sender;    \n  }\n\n  //registering candidate cannot be public.\n  function registerCandidate (string memory _candidateName, string memory _party) private {\n      candidatesCount ++;\n      //We need to subtract 1 in the index because the index of the candidates start with zero\n      //but the count of candidates must start with 1, hence we increment candidatesCount prior.\n      candidates[candidatesCount-1]= Candidate(candidatesCount-1, _candidateName, 0, _party);\n      \n  }\n\n  function vote (uint _candidateId) public {\n        //require that the election is not closed\n        require(electionOff == false);\n\n        // Require that the voter has not voted before\n        require(!voters[msg.sender]);\n\n        // Require that the candidate has a valid ID\n        require(_candidateId >= 0 && _candidateId <= candidatesCount-1);\n\n        // Update the candidate vote Count\n        candidates[_candidateId].voteCount ++;\n\n        // Record that voter has voted \n        voters[msg.sender] = true;       \n    }\n\n    ///@dev the function closeElection() can be implemented\n    function closeElection() public onlyOwner{ \n      electionOff = true;\n\n    \n    }\n}\n\n\n",
  "sourcePath": "/home/ubuntu/blockchain/blockchain-developer-bootcamp-final-project/contracts/MauElection.sol",
  "compiler": {
    "name": "solc",
    "version": "0.8.11+commit.d7f03943.Emscripten.clang"
  },
  "schemaVersion": "3.4.4",
  "updatedAt": "2022-02-02T09:34:10.657Z",
  "networkType": "ethereum",
  "devdoc": {
    "kind": "dev",
    "methods": {
      "closeElection()": {
        "details": "the function closeElection() can be implemented"
      },
      "owner()": {
        "details": "Returns the address of the current owner."
      },
      "renounceOwnership()": {
        "details": "Leaves the contract without owner. It will not be possible to call `onlyOwner` functions anymore. Can only be called by the current owner. NOTE: Renouncing ownership will leave the contract without an owner, thereby removing any functionality that is only available to the owner."
      },
      "transferOwnership(address)": {
        "details": "Transfers ownership of the contract to a new account (`newOwner`). Can only be called by the current owner."
      }
    },
    "stateVariables": {
      "electionOff": {
        "details": "This boolean operator is used to keep the state of the election (on or off)"
      }
    },
    "version": 1
  },
  "userdoc": {
    "kind": "user",
    "methods": {},
    "notice": "MauElection stands for Mauritius Election. With more experience, the current projectcan be expanded to ressemble more the Mauritian Election system. ",
    "version": 1
  }
}